{
    "_format": "hh-sol-artifact-1",
    "contractName": "IdeaBoard",
    "sourceName": "contracts/IdeaBoard.sol",
    "abi": [
        {
            "inputs": [],
            "stateMutability": "nonpayable",
            "type": "constructor"
        },
        {
            "inputs": [
                {
                    "internalType": "string",
                    "name": "title",
                    "type": "string"
                },
                {
                    "internalType": "string",
                    "name": "description",
                    "type": "string"
                }
            ],
            "name": "createIdea",
            "outputs": [],
            "stateMutability": "nonpayable",
            "type": "function"
        },
        {
            "inputs": [
                {
                    "internalType": "uint256",
                    "name": "id",
                    "type": "uint256"
                }
            ],
            "name": "downvote",
            "outputs": [],
            "stateMutability": "nonpayable",
            "type": "function"
        },
        {
            "inputs": [
                {
                    "internalType": "uint256",
                    "name": "id",
                    "type": "uint256"
                }
            ],
            "name": "getIdea",
            "outputs": [
                {
                    "internalType": "uint256",
                    "name": "",
                    "type": "uint256"
                },
                {
                    "internalType": "uint256",
                    "name": "",
                    "type": "uint256"
                },
                {
                    "internalType": "uint256",
                    "name": "",
                    "type": "uint256"
                },
                {
                    "internalType": "string",
                    "name": "",
                    "type": "string"
                },
                {
                    "internalType": "string",
                    "name": "",
                    "type": "string"
                },
                {
                    "internalType": "address",
                    "name": "",
                    "type": "address"
                }
            ],
            "stateMutability": "view",
            "type": "function"
        },
        {
            "inputs": [],
            "name": "hasAccess",
            "outputs": [
                {
                    "internalType": "bool",
                    "name": "accessible",
                    "type": "bool"
                }
            ],
            "stateMutability": "view",
            "type": "function"
        },
        {
            "inputs": [
                {
                    "internalType": "uint256",
                    "name": "id",
                    "type": "uint256"
                }
            ],
            "name": "upvote",
            "outputs": [],
            "stateMutability": "nonpayable",
            "type": "function"
        }
    ],
    "bytecode": "0x608060405273a6fa50c9817d47ec2608c0159c9ce666b95260fd600260006101000a81548173ffffffffffffffffffffffffffffffffffffffff021916908373ffffffffffffffffffffffffffffffffffffffff1602179055503480156200006657600080fd5b5062000096604051806060016040528060258152602001620012d9602591396200009c60201b620007fc1760201c565b62000230565b6200013c81604051602401620000b39190620001a9565b6040516020818303038152906040527f41304fac000000000000000000000000000000000000000000000000000000007bffffffffffffffffffffffffffffffffffffffffffffffffffffffff19166020820180517bffffffffffffffffffffffffffffffffffffffffffffffffffffffff83818316178352505050506200013f60201b60201c565b50565b60008151905060006a636f6e736f6c652e6c6f679050602083016000808483855afa5050505050565b60006200017582620001cd565b620001818185620001d8565b935062000193818560208601620001e9565b6200019e816200021f565b840191505092915050565b60006020820190508181036000830152620001c5818462000168565b905092915050565b600081519050919050565b600082825260208201905092915050565b60005b8381101562000209578082015181840152602081019050620001ec565b8381111562000219576000848401525b50505050565b6000601f19601f8301169050919050565b61109980620002406000396000f3fe608060405234801561001057600080fd5b50600436106100575760003560e01c806301ddf0701461005c57806344de6b2f146100785780636918659e146100ad57806385a2dd15146100c9578063f31fdad4146100e7575b600080fd5b61007660048036038101906100719190610bbb565b610103565b005b610092600480360381019061008d9190610bbb565b610187565b6040516100a496959493929190610d6e565b60405180910390f35b6100c760048036038101906100c29190610b4f565b610366565b005b6100d1610637565b6040516100de9190610cb1565b60405180910390f35b61010160048036038101906100fc9190610bbb565b610778565b005b60016000828152602001908152602001600020600101600081548092919061012a90610f3c565b91905055506101846040518060400160405280601481526020017f257320686173206265656e207570766f746564210000000000000000000000008152506001600084815260200190815260200160002060000154610895565b50565b6000806000606080600060016000888152602001908152602001600020600001546001600089815260200190815260200160002060010154600160008a815260200190815260200160002060020154600160008b8152602001908152602001600020600301600160008c8152602001908152602001600020600401600160008d815260200190815260200160002060050160009054906101000a900473ffffffffffffffffffffffffffffffffffffffff1682805461024590610ed9565b80601f016020809104026020016040519081016040528092919081815260200182805461027190610ed9565b80156102be5780601f10610293576101008083540402835291602001916102be565b820191906000526020600020905b8154815290600101906020018083116102a157829003601f168201915b505050505092508180546102d190610ed9565b80601f01602080910402602001604051908101604052809291908181526020018280546102fd90610ed9565b801561034a5780601f1061031f5761010080835404028352916020019161034a565b820191906000526020600020905b81548152906001019060200180831161032d57829003601f168201915b5050505050915095509550955095509550955091939550919395565b600260009054906101000a900473ffffffffffffffffffffffffffffffffffffffff1673ffffffffffffffffffffffffffffffffffffffff166370a08231336040518263ffffffff1660e01b81526004016103c19190610c96565b60206040518083038186803b1580156103d957600080fd5b505afa92505050801561040a57506040513d601f19601f820116820180604052508101906104079190610be4565b60015b610485573d806000811461043a576040519150601f19603f3d011682016040523d82523d6000602084013e61043f565b606091505b5061047f6040518060400160405280601081526020017f4e6f20546f6b656e7320666f722025730000000000000000000000000000000081525033610931565b50610633565b60008114156104c9576040517f08c379a00000000000000000000000000000000000000000000000000000000081526004016104c090610d4e565b60405180910390fd5b60006104d560006109cd565b90506040518060c0016040528082815260200160008152602001600081526020018581526020018481526020013373ffffffffffffffffffffffffffffffffffffffff16815250600160008381526020019081526020016000206000820151816000015560208201518160010155604082015181600201556060820151816003019080519060200190610569929190610a1a565b506080820151816004019080519060200190610586929190610a1a565b5060a08201518160050160006101000a81548173ffffffffffffffffffffffffffffffffffffffff021916908373ffffffffffffffffffffffffffffffffffffffff1602179055509050506105db60006109db565b6106306040518060400160405280601481526020017f257320686173206265656e2063726561746564210000000000000000000000008152506001600084815260200190815260200160002060000154610895565b50505b5050565b6000600260009054906101000a900473ffffffffffffffffffffffffffffffffffffffff1673ffffffffffffffffffffffffffffffffffffffff166370a08231336040518263ffffffff1660e01b81526004016106949190610c96565b60206040518083038186803b1580156106ac57600080fd5b505afa9250505080156106dd57506040513d601f19601f820116820180604052508101906106da9190610be4565b60015b610757573d806000811461070d576040519150601f19603f3d011682016040523d82523d6000602084013e610712565b606091505b506107516040518060400160405280601c81526020017f6572726f72206f63636375726564206665746368696e67206e667473000000008152506107fc565b50610774565b600081111561076a576001915050610775565b6000915050610775565b5b90565b60016000828152602001908152602001600020600201600081548092919061079f90610f3c565b91905055506107f96040518060400160405280601681526020017f257320686173206265656e20646f776e766f74656421000000000000000000008152506001600084815260200190815260200160002060000154610895565b50565b610892816040516024016108109190610ccc565b6040516020818303038152906040527f41304fac000000000000000000000000000000000000000000000000000000007bffffffffffffffffffffffffffffffffffffffffffffffffffffffff19166020820180517bffffffffffffffffffffffffffffffffffffffffffffffffffffffff83818316178352505050506109f1565b50565b61092d82826040516024016108ab929190610d1e565b6040516020818303038152906040527f9710a9d0000000000000000000000000000000000000000000000000000000007bffffffffffffffffffffffffffffffffffffffffffffffffffffffff19166020820180517bffffffffffffffffffffffffffffffffffffffffffffffffffffffff83818316178352505050506109f1565b5050565b6109c98282604051602401610947929190610cee565b6040516020818303038152906040527f319af333000000000000000000000000000000000000000000000000000000007bffffffffffffffffffffffffffffffffffffffffffffffffffffffff19166020820180517bffffffffffffffffffffffffffffffffffffffffffffffffffffffff83818316178352505050506109f1565b5050565b600081600001549050919050565b6001816000016000828254019250508190555050565b60008151905060006a636f6e736f6c652e6c6f679050602083016000808483855afa5050505050565b828054610a2690610ed9565b90600052602060002090601f016020900481019282610a485760008555610a8f565b82601f10610a6157805160ff1916838001178555610a8f565b82800160010185558215610a8f579182015b82811115610a8e578251825591602001919060010190610a73565b5b509050610a9c9190610aa0565b5090565b5b80821115610ab9576000816000905550600101610aa1565b5090565b6000610ad0610acb84610e02565b610ddd565b905082815260208101848484011115610ae857600080fd5b610af3848285610e97565b509392505050565b600082601f830112610b0c57600080fd5b8135610b1c848260208601610abd565b91505092915050565b600081359050610b348161104c565b92915050565b600081519050610b498161104c565b92915050565b60008060408385031215610b6257600080fd5b600083013567ffffffffffffffff811115610b7c57600080fd5b610b8885828601610afb565b925050602083013567ffffffffffffffff811115610ba557600080fd5b610bb185828601610afb565b9150509250929050565b600060208284031215610bcd57600080fd5b6000610bdb84828501610b25565b91505092915050565b600060208284031215610bf657600080fd5b6000610c0484828501610b3a565b91505092915050565b610c1681610e4f565b82525050565b610c2581610e61565b82525050565b6000610c3682610e33565b610c408185610e3e565b9350610c50818560208601610ea6565b610c5981611012565b840191505092915050565b6000610c71600983610e3e565b9150610c7c82611023565b602082019050919050565b610c9081610e8d565b82525050565b6000602082019050610cab6000830184610c0d565b92915050565b6000602082019050610cc66000830184610c1c565b92915050565b60006020820190508181036000830152610ce68184610c2b565b905092915050565b60006040820190508181036000830152610d088185610c2b565b9050610d176020830184610c0d565b9392505050565b60006040820190508181036000830152610d388185610c2b565b9050610d476020830184610c87565b9392505050565b60006020820190508181036000830152610d6781610c64565b9050919050565b600060c082019050610d836000830189610c87565b610d906020830188610c87565b610d9d6040830187610c87565b8181036060830152610daf8186610c2b565b90508181036080830152610dc38185610c2b565b9050610dd260a0830184610c0d565b979650505050505050565b6000610de7610df8565b9050610df38282610f0b565b919050565b6000604051905090565b600067ffffffffffffffff821115610e1d57610e1c610fe3565b5b610e2682611012565b9050602081019050919050565b600081519050919050565b600082825260208201905092915050565b6000610e5a82610e6d565b9050919050565b60008115159050919050565b600073ffffffffffffffffffffffffffffffffffffffff82169050919050565b6000819050919050565b82818337600083830152505050565b60005b83811015610ec4578082015181840152602081019050610ea9565b83811115610ed3576000848401525b50505050565b60006002820490506001821680610ef157607f821691505b60208210811415610f0557610f04610fb4565b5b50919050565b610f1482611012565b810181811067ffffffffffffffff82111715610f3357610f32610fe3565b5b80604052505050565b6000610f4782610e8d565b91507fffffffffffffffffffffffffffffffffffffffffffffffffffffffffffffffff821415610f7a57610f79610f85565b5b600182019050919050565b7f4e487b7100000000000000000000000000000000000000000000000000000000600052601160045260246000fd5b7f4e487b7100000000000000000000000000000000000000000000000000000000600052602260045260246000fd5b7f4e487b7100000000000000000000000000000000000000000000000000000000600052604160045260246000fd5b6000601f19601f8301169050919050565b7f6e6f20746f6b656e730000000000000000000000000000000000000000000000600082015250565b61105581610e8d565b811461106057600080fd5b5056fea2646970667358221220497d3185df9d18ead68bcc8dd6084d2f67b7fec9015716bae97d2e9e30af1b7164736f6c63430008010033596f20796f2c204920616d206120636f6e747261637420616e64204920616d20736d617274",
    "linkReferences": {},
    "deployedLinkReferences": {}
}